8=FIX.4.4|9=67|35=A|34=1|49=CLIENT|52=20250728-08:14:07.365|56=SERVER|98=0|108=30|10=165|8=FIX.4.4|9=67|35=A|34=2|49=CLIENT|52=20250728-08:14:38.640|56=SERVER|98=0|108=30|10=166|8=FIX.4.4|9=67|35=A|34=3|49=CLIENT|52=20250728-08:15:08.439|56=SERVER|98=0|108=30|10=171|8=FIX.4.4|9=67|35=A|34=4|49=CLIENT|52=20250728-08:15:39.426|56=SERVER|98=0|108=30|10=172|8=FIX.4.4|9=67|35=A|34=5|49=CLIENT|52=20250728-08:16:10.430|56=SERVER|98=0|108=30|10=158|8=FIX.4.4|9=67|35=A|34=6|49=CLIENT|52=20250728-08:16:40.423|56=SERVER|98=0|108=30|10=164|8=FIX.4.4|9=67|35=A|34=7|49=CLIENT|52=20250728-08:17:10.437|56=SERVER|98=0|108=30|10=168|8=FIX.4.4|9=67|35=A|34=8|49=CLIENT|52=20250728-08:17:41.428|56=SERVER|98=0|108=30|10=173|8=FIX.4.4|9=67|35=A|34=9|49=CLIENT|52=20250728-08:18:11.433|56=SERVER|98=0|108=30|10=168|8=FIX.4.4|9=68|35=A|34=10|49=CLIENT|52=20250728-08:18:41.423|56=SERVER|98=0|108=30|10=211|8=FIX.4.4|9=68|35=A|34=11|49=CLIENT|52=20250728-08:19:11.424|56=SERVER|98=0|108=30|10=211|8=FIX.4.4|9=68|35=A|34=12|49=CLIENT|52=20250728-08:19:42.432|56=SERVER|98=0|108=30|10=215|8=FIX.4.4|9=68|35=A|34=13|49=CLIENT|52=20250728-08:20:12.425|56=SERVER|98=0|108=30|10=207|8=FIX.4.4|9=68|35=A|34=14|49=CLIENT|52=20250728-08:20:42.422|56=SERVER|98=0|108=30|10=208|8=FIX.4.4|9=68|35=A|34=15|49=CLIENT|52=20250728-08:21:12.430|56=SERVER|98=0|108=30|10=206|8=FIX.4.4|9=68|35=A|34=16|49=CLIENT|52=20250728-08:21:43.422|56=SERVER|98=0|108=30|10=212|8=FIX.4.4|9=68|35=A|34=17|49=CLIENT|52=20250728-08:22:13.431|56=SERVER|98=0|108=30|10=211|8=FIX.4.4|9=68|35=A|34=18|49=CLIENT|52=20250728-08:22:43.433|56=SERVER|98=0|108=30|10=217|8=FIX.4.4|9=68|35=A|34=19|49=CLIENT|52=20250728-08:23:13.423|56=SERVER|98=0|108=30|10=215|8=FIX.4.4|9=68|35=A|34=20|49=CLIENT|52=20250728-08:23:44.428|56=SERVER|98=0|108=30|10=216|8=FIX.4.4|9=68|35=A|34=21|49=CLIENT|52=20250728-08:24:14.425|56=SERVER|98=0|108=30|10=212|8=FIX.4.4|9=68|35=A|34=22|49=CLIENT|52=20250728-08:24:44.425|56=SERVER|98=0|108=30|10=216|8=FIX.4.4|9=68|35=A|34=23|49=CLIENT|52=20250728-08:25:15.422|56=SERVER|98=0|108=30|10=213|8=FIX.4.4|9=68|35=A|34=24|49=CLIENT|52=20250728-08:25:45.430|56=SERVER|98=0|108=30|10=216|8=FIX.4.4|9=68|35=A|34=25|49=CLIENT|52=20250728-08:26:15.424|56=SERVER|98=0|108=30|10=218|8=FIX.4.4|9=68|35=A|34=26|49=CLIENT|52=20250728-08:26:46.427|56=SERVER|98=0|108=30|10=226|8=FIX.4.4|9=68|35=A|34=27|49=CLIENT|52=20250728-08:27:16.432|56=SERVER|98=0|108=30|10=221|8=FIX.4.4|9=68|35=A|34=28|49=CLIENT|52=20250728-08:27:46.422|56=SERVER|98=0|108=30|10=224|8=FIX.4.4|9=68|35=A|34=29|49=CLIENT|52=20250728-08:28:16.429|56=SERVER|98=0|108=30|10=230|8=FIX.4.4|9=68|35=A|34=30|49=CLIENT|52=20250728-08:28:47.428|56=SERVER|98=0|108=30|10=225|8=FIX.4.4|9=68|35=A|34=31|49=CLIENT|52=20250728-08:29:17.435|56=SERVER|98=0|108=30|10=222|8=FIX.4.4|9=68|35=A|34=32|49=CLIENT|52=20250728-08:29:47.431|56=SERVER|98=0|108=30|10=222|8=FIX.4.4|9=68|35=A|34=33|49=CLIENT|52=20250728-08:30:17.422|56=SERVER|98=0|108=30|10=212|8=FIX.4.4|9=68|35=A|34=34|49=CLIENT|52=20250728-08:30:48.425|56=SERVER|98=0|108=30|10=220|8=FIX.4.4|9=68|35=A|34=35|49=CLIENT|52=20250728-08:31:18.424|56=SERVER|98=0|108=30|10=218|8=FIX.4.4|9=68|35=A|34=36|49=CLIENT|52=20250728-08:31:48.423|56=SERVER|98=0|108=30|10=221|8=FIX.4.4|9=68|35=A|34=37|49=CLIENT|52=20250728-08:32:19.437|56=SERVER|98=0|108=30|10=226|8=FIX.4.4|9=68|35=A|34=38|49=CLIENT|52=20250728-08:32:49.434|56=SERVER|98=0|108=30|10=227|8=FIX.4.4|9=68|35=A|34=39|49=CLIENT|52=20250728-08:33:19.433|56=SERVER|98=0|108=30|10=225|8=FIX.4.4|9=68|35=A|34=40|49=CLIENT|52=20250728-08:33:50.431|56=SERVER|98=0|108=30|10=210|8=FIX.4.4|9=68|35=A|34=41|49=CLIENT|52=20250728-08:34:20.423|56=SERVER|98=0|108=30|10=210|8=FIX.4.4|9=68|35=A|34=42|49=CLIENT|52=20250728-08:34:50.433|56=SERVER|98=0|108=30|10=215|8=FIX.4.4|9=68|35=A|34=43|49=CLIENT|52=20250728-08:35:21.432|56=SERVER|98=0|108=30|10=214|8=FIX.4.4|9=68|35=A|34=44|49=CLIENT|52=20250728-08:35:51.429|56=SERVER|98=0|108=30|10=224|8=FIX.4.4|9=68|35=A|34=45|49=CLIENT|52=20250728-08:36:21.422|56=SERVER|98=0|108=30|10=216|8=FIX.4.4|9=68|35=A|34=46|49=CLIENT|52=20250728-08:36:52.424|56=SERVER|98=0|108=30|10=223|8=FIX.4.4|9=68|35=A|34=47|49=CLIENT|52=20250728-08:37:22.429|56=SERVER|98=0|108=30|10=227|8=FIX.4.4|9=68|35=A|34=48|49=CLIENT|52=20250728-08:37:52.437|56=SERVER|98=0|108=30|10=230|8=FIX.4.4|9=68|35=A|34=49|49=CLIENT|52=20250728-08:38:22.425|56=SERVER|98=0|108=30|10=226|8=FIX.4.4|9=68|35=A|34=50|49=CLIENT|52=20250728-08:38:53.433|56=SERVER|98=0|108=30|10=221|8=FIX.4.4|9=68|35=A|34=51|49=CLIENT|52=20250728-08:39:23.422|56=SERVER|98=0|108=30|10=218|8=FIX.4.4|9=68|35=A|34=52|49=CLIENT|52=20250728-08:39:53.423|56=SERVER|98=0|108=30|10=223|8=FIX.4.4|9=68|35=A|34=53|49=CLIENT|52=20250728-08:40:24.422|56=SERVER|98=0|108=30|10=213|8=FIX.4.4|9=68|35=A|34=54|49=CLIENT|52=20250728-08:40:54.428|56=SERVER|98=0|108=30|10=223|8=FIX.4.4|9=68|35=A|34=55|49=CLIENT|52=20250728-08:41:24.436|56=SERVER|98=0|108=30|10=221|8=FIX.4.4|9=68|35=A|34=56|49=CLIENT|52=20250728-08:41:55.427|56=SERVER|98=0|108=30|10=226|8=FIX.4.4|9=68|35=A|34=57|49=CLIENT|52=20250728-08:42:25.428|56=SERVER|98=0|108=30|10=226|8=FIX.4.4|9=68|35=A|34=58|49=CLIENT|52=20250728-08:42:55.431|56=SERVER|98=0|108=30|10=224|8=FIX.4.4|9=68|35=A|34=59|49=CLIENT|52=20250728-08:43:26.431|56=SERVER|98=0|108=30|10=224|8=FIX.4.4|9=68|35=A|34=60|49=CLIENT|52=20250728-08:43:56.427|56=SERVER|98=0|108=30|10=224|8=FIX.4.4|9=68|35=A|34=61|49=CLIENT|52=20250728-08:44:26.430|56=SERVER|98=0|108=30|10=217|8=FIX.4.4|9=68|35=A|34=62|49=CLIENT|52=20250728-08:44:57.429|56=SERVER|98=0|108=30|10=230|8=FIX.4.4|9=68|35=A|34=63|49=CLIENT|52=20250728-08:45:27.435|56=SERVER|98=0|108=30|10=226|8=FIX.4.4|9=68|35=A|34=64|49=CLIENT|52=20250728-08:45:57.422|56=SERVER|98=0|108=30|10=226|8=FIX.4.4|9=68|35=A|34=65|49=CLIENT|52=20250728-08:46:28.425|56=SERVER|98=0|108=30|10=229|8=FIX.4.4|9=68|35=A|34=66|49=CLIENT|52=20250728-08:46:58.436|56=SERVER|98=0|108=30|10=235|8=FIX.4.4|9=68|35=A|34=67|49=CLIENT|52=20250728-08:47:28.431|56=SERVER|98=0|108=30|10=229|8=FIX.4.4|9=68|35=A|34=68|49=CLIENT|52=20250728-08:47:59.433|56=SERVER|98=0|108=30|10=236|8=FIX.4.4|9=68|35=A|34=69|49=CLIENT|52=20250728-08:48:29.433|56=SERVER|98=0|108=30|10=235|8=FIX.4.4|9=68|35=A|34=70|49=CLIENT|52=20250728-08:48:59.423|56=SERVER|98=0|108=30|10=229|8=FIX.4.4|9=68|35=A|34=71|49=CLIENT|52=20250728-08:49:29.422|56=SERVER|98=0|108=30|10=227|8=FIX.4.4|9=68|35=A|34=72|49=CLIENT|52=20250728-08:50:00.423|56=SERVER|98=0|108=30|10=210|8=FIX.4.4|9=68|35=A|34=73|49=CLIENT|52=20250728-08:50:30.430|56=SERVER|98=0|108=30|10=212|8=FIX.4.4|9=68|35=A|34=74|49=CLIENT|52=20250728-08:51:00.427|56=SERVER|98=0|108=30|10=217|8=FIX.4.4|9=68|35=A|34=75|49=CLIENT|52=20250728-08:51:31.430|56=SERVER|98=0|108=30|10=216|8=FIX.4.4|9=68|35=A|34=76|49=CLIENT|52=20250728-08:52:01.434|56=SERVER|98=0|108=30|10=219|8=FIX.4.4|9=68|35=A|34=77|49=CLIENT|52=20250728-08:52:31.431|56=SERVER|98=0|108=30|10=220|8=FIX.4.4|9=68|35=A|34=78|49=CLIENT|52=20250728-08:53:02.434|56=SERVER|98=0|108=30|10=223|8=FIX.4.4|9=68|35=A|34=79|49=CLIENT|52=20250728-08:53:32.432|56=SERVER|98=0|108=30|10=225|8=FIX.4.4|9=68|35=A|34=80|49=CLIENT|52=20250728-08:54:02.423|56=SERVER|98=0|108=30|10=215|8=FIX.4.4|9=68|35=A|34=81|49=CLIENT|52=20250728-08:54:33.425|56=SERVER|98=0|108=30|10=222|8=FIX.4.4|9=68|35=A|34=82|49=CLIENT|52=20250728-08:55:03.431|56=SERVER|98=0|108=30|10=218|8=FIX.4.4|9=68|35=A|34=83|49=CLIENT|52=20250728-08:55:33.424|56=SERVER|98=0|108=30|10=224|8=FIX.4.4|9=68|35=A|34=84|49=CLIENT|52=20250728-08:56:04.436|56=SERVER|98=0|108=30|10=227|8=FIX.4.4|9=68|35=A|34=85|49=CLIENT|52=20250728-08:56:34.429|56=SERVER|98=0|108=30|10=233|8=FIX.4.4|9=68|35=A|34=86|49=CLIENT|52=20250728-08:57:04.435|56=SERVER|98=0|108=30|10=229|8=FIX.4.4|9=68|35=A|34=87|49=CLIENT|52=20250728-08:57:35.424|56=SERVER|98=0|108=30|10=232|8=FIX.4.4|9=68|35=A|34=88|49=CLIENT|52=20250728-08:58:05.426|56=SERVER|98=0|108=30|10=233|8=FIX.4.4|9=68|35=A|34=89|49=CLIENT|52=20250728-08:58:35.429|56=SERVER|98=0|108=30|10=240|8=FIX.4.4|9=68|35=A|34=90|49=CLIENT|52=20250728-08:59:05.436|56=SERVER|98=0|108=30|10=228|8=FIX.4.4|9=68|35=A|34=91|49=CLIENT|52=20250728-08:59:36.433|56=SERVER|98=0|108=30|10=230|8=FIX.4.4|9=68|35=A|34=92|49=CLIENT|52=20250728-09:00:06.429|56=SERVER|98=0|108=30|10=220|8=FIX.4.4|9=68|35=A|34=93|49=CLIENT|52=20250728-09:00:36.425|56=SERVER|98=0|108=30|10=220|8=FIX.4.4|9=68|35=A|34=94|49=CLIENT|52=20250728-09:01:07.433|56=SERVER|98=0|108=30|10=219|8=FIX.4.4|9=68|35=A|34=95|49=CLIENT|52=20250728-09:01:37.428|56=SERVER|98=0|108=30|10=227|8=FIX.4.4|9=68|35=A|34=96|49=CLIENT|52=20250728-09:02:07.427|56=SERVER|98=0|108=30|10=225|8=FIX.4.4|9=68|35=A|34=97|49=CLIENT|52=20250728-09:02:38.430|56=SERVER|98=0|108=30|10=224|8=FIX.4.4|9=68|35=A|34=98|49=CLIENT|52=20250728-09:03:08.422|56=SERVER|98=0|108=30|10=224|8=FIX.4.4|9=68|35=A|34=99|49=CLIENT|52=20250728-09:03:38.423|56=SERVER|98=0|108=30|10=229|8=FIX.4.4|9=69|35=A|34=100|49=CLIENT|52=20250728-09:04:08.423|56=SERVER|98=0|108=30|10=003|8=FIX.4.4|9=69|35=A|34=101|49=CLIENT|52=20250728-09:04:39.425|56=SERVER|98=0|108=30|10=010|8=FIX.4.4|9=69|35=A|34=102|49=CLIENT|52=20250728-09:05:09.431|56=SERVER|98=0|108=30|10=006|8=FIX.4.4|9=69|35=A|34=103|49=CLIENT|52=20250728-09:05:39.435|56=SERVER|98=0|108=30|10=014|8=FIX.4.4|9=69|35=A|34=104|49=CLIENT|52=20250728-09:06:10.424|56=SERVER|98=0|108=30|10=003|8=FIX.4.4|9=69|35=A|34=105|49=CLIENT|52=20250728-09:06:40.429|56=SERVER|98=0|108=30|10=012|8=FIX.4.4|9=69|35=A|34=106|49=CLIENT|52=20250728-09:07:10.428|56=SERVER|98=0|108=30|10=010|8=FIX.4.4|9=69|35=A|34=107|49=CLIENT|52=20250728-09:07:41.430|56=SERVER|98=0|108=30|10=008|8=FIX.4.4|9=69|35=A|34=108|49=CLIENT|52=20250728-09:08:11.433|56=SERVER|98=0|108=30|10=010|8=FIX.4.4|9=69|35=A|34=109|49=CLIENT|52=20250728-09:08:41.435|56=SERVER|98=0|108=30|10=016|8=FIX.4.4|9=69|35=A|34=110|49=CLIENT|52=20250728-09:09:12.433|56=SERVER|98=0|108=30|10=005|8=FIX.4.4|9=69|35=A|34=111|49=CLIENT|52=20250728-09:09:42.434|56=SERVER|98=0|108=30|10=010|8=FIX.4.4|9=69|35=A|34=112|49=CLIENT|52=20250728-09:10:12.425|56=SERVER|98=0|108=30|10=000|8=FIX.4.4|9=69|35=A|34=113|49=CLIENT|52=20250728-09:10:43.435|56=SERVER|98=0|108=30|10=006|8=FIX.4.4|9=69|35=A|34=114|49=CLIENT|52=20250728-09:11:13.429|56=SERVER|98=0|108=30|10=008|8=FIX.4.4|9=69|35=A|34=115|49=CLIENT|52=20250728-09:11:43.425|56=SERVER|98=0|108=30|10=008|8=FIX.4.4|9=69|35=A|34=116|49=CLIENT|52=20250728-09:12:14.428|56=SERVER|98=0|108=30|10=011|8=FIX.4.4|9=69|35=A|34=117|49=CLIENT|52=20250728-09:12:44.435|56=SERVER|98=0|108=30|10=013|8=FIX.4.4|9=69|35=A|34=118|49=CLIENT|52=20250728-09:13:14.427|56=SERVER|98=0|108=30|10=013|8=FIX.4.4|9=69|35=A|34=119|49=CLIENT|52=20250728-09:13:45.436|56=SERVER|98=0|108=30|10=018|8=FIX.4.4|9=69|35=A|34=120|49=CLIENT|52=20250728-09:14:15.433|56=SERVER|98=0|108=30|10=005|8=FIX.4.4|9=69|35=A|34=121|49=CLIENT|52=20250728-09:14:45.433|56=SERVER|98=0|108=30|10=009|8=FIX.4.4|9=69|35=A|34=122|49=CLIENT|52=20250728-09:15:16.434|56=SERVER|98=0|108=30|10=010|8=FIX.4.4|9=69|35=A|34=123|49=CLIENT|52=20250728-09:15:46.424|56=SERVER|98=0|108=30|10=013|8=FIX.4.4|9=69|35=A|34=124|49=CLIENT|52=20250728-09:16:16.438|56=SERVER|98=0|108=30|10=017|8=FIX.4.4|9=69|35=A|34=125|49=CLIENT|52=20250728-09:16:47.432|56=SERVER|98=0|108=30|10=016|8=FIX.4.4|9=69|35=A|34=126|49=CLIENT|52=20250728-09:17:17.427|56=SERVER|98=0|108=30|10=019|8=FIX.4.4|9=69|35=A|34=127|49=CLIENT|52=20250728-09:17:47.422|56=SERVER|98=0|108=30|10=018|8=FIX.4.4|9=69|35=A|34=128|49=CLIENT|52=20250728-09:18:18.427|56=SERVER|98=0|108=30|10=023|8=FIX.4.4|9=69|35=A|34=129|49=CLIENT|52=20250728-09:18:48.429|56=SERVER|98=0|108=30|10=029|8=FIX.4.4|9=69|35=A|34=130|49=CLIENT|52=20250728-09:19:18.434|56=SERVER|98=0|108=30|10=015|8=FIX.4.4|9=69|35=A|34=131|49=CLIENT|52=20250728-09:19:49.425|56=SERVER|98=0|108=30|10=020|8=FIX.4.4|9=69|35=A|34=132|49=CLIENT|52=20250728-09:20:19.426|56=SERVER|98=0|108=30|10=011|8=FIX.4.4|9=69|35=A|34=133|49=CLIENT|52=20250728-09:20:49.432|56=SERVER|98=0|108=30|10=012|8=FIX.4.4|9=69|35=A|34=134|49=CLIENT|52=20250728-09:21:20.422|56=SERVER|98=0|108=30|10=002|8=FIX.4.4|9=69|35=A|34=135|49=CLIENT|52=20250728-09:21:50.428|56=SERVER|98=0|108=30|10=012|8=FIX.4.4|9=69|35=A|34=136|49=CLIENT|52=20250728-09:22:20.424|56=SERVER|98=0|108=30|10=007|8=FIX.4.4|9=69|35=A|34=137|49=CLIENT|52=20250728-09:22:51.428|56=SERVER|98=0|108=30|10=016|8=FIX.4.4|9=69|35=A|34=138|49=CLIENT|52=20250728-09:23:21.435|56=SERVER|98=0|108=30|10=013|8=FIX.4.4|9=69|35=A|34=139|49=CLIENT|52=20250728-09:23:51.426|56=SERVER|98=0|108=30|10=017|8=FIX.4.4|9=69|35=A|34=140|49=CLIENT|52=20250728-09:24:22.423|56=SERVER|98=0|108=30|10=005|8=FIX.4.4|9=69|35=A|34=141|49=CLIENT|52=20250728-09:24:52.423|56=SERVER|98=0|108=30|10=009|8=FIX.4.4|9=69|35=A|34=142|49=CLIENT|52=20250728-09:25:22.436|56=SERVER|98=0|108=30|10=012|8=FIX.4.4|9=69|35=A|34=143|49=CLIENT|52=20250728-09:25:53.432|56=SERVER|98=0|108=30|10=013|8=FIX.4.4|9=69|35=A|34=144|49=CLIENT|52=20250728-09:26:23.428|56=SERVER|98=0|108=30|10=017|8=FIX.4.4|9=69|35=A|34=145|49=CLIENT|52=20250728-09:26:53.428|56=SERVER|98=0|108=30|10=021|8=FIX.4.4|9=69|35=A|34=146|49=CLIENT|52=20250728-09:27:24.426|56=SERVER|98=0|108=30|10=019|8=FIX.4.4|9=69|35=A|34=147|49=CLIENT|52=20250728-09:27:54.422|56=SERVER|98=0|108=30|10=019|8=FIX.4.4|9=69|35=A|34=148|49=CLIENT|52=20250728-09:28:24.424|56=SERVER|98=0|108=30|10=020|8=FIX.4.4|9=69|35=A|34=149|49=CLIENT|52=20250728-09:28:55.428|56=SERVER|98=0|108=30|10=029|8=FIX.4.4|9=69|35=A|34=150|49=CLIENT|52=20250728-09:29:25.434|56=SERVER|98=0|108=30|10=016|8=FIX.4.4|9=69|35=A|34=151|49=CLIENT|52=20250728-09:29:56.424|56=SERVER|98=0|108=30|10=020|8=FIX.4.4|9=69|35=A|34=152|49=CLIENT|52=20250728-09:30:26.433|56=SERVER|98=0|108=30|10=010|8=FIX.4.4|9=69|35=A|34=153|49=CLIENT|52=20250728-09:30:56.428|56=SERVER|98=0|108=30|10=018|8=FIX.4.4|9=69|35=A|34=154|49=CLIENT|52=20250728-09:31:27.425|56=SERVER|98=0|108=30|10=015|8=FIX.4.4|9=69|35=A|34=155|49=CLIENT|52=20250728-09:31:57.429|56=SERVER|98=0|108=30|10=023|8=FIX.4.4|9=69|35=A|34=156|49=CLIENT|52=20250728-09:32:27.426|56=SERVER|98=0|108=30|10=019|8=FIX.4.4|9=69|35=A|34=157|49=CLIENT|52=20250728-09:32:58.424|56=SERVER|98=0|108=30|10=022|8=FIX.4.4|9=69|35=A|34=158|49=CLIENT|52=20250728-09:33:28.427|56=SERVER|98=0|108=30|10=024|8=FIX.4.4|9=69|35=A|34=159|49=CLIENT|52=20250728-09:33:58.430|56=SERVER|98=0|108=30|10=022|8=FIX.4.4|9=69|35=A|34=160|49=CLIENT|52=20250728-09:34:28.422|56=SERVER|98=0|108=30|10=013|8=FIX.4.4|9=69|35=A|34=161|49=CLIENT|52=20250728-09:34:59.428|56=SERVER|98=0|108=30|10=024|8=FIX.4.4|9=69|35=A|34=162|49=CLIENT|52=20250728-09:35:29.430|56=SERVER|98=0|108=30|10=016|8=FIX.4.4|9=69|35=A|34=163|49=CLIENT|52=20250728-09:35:59.422|56=SERVER|98=0|108=30|10=021|8=FIX.4.4|9=69|35=A|34=164|49=CLIENT|52=20250728-09:36:30.430|56=SERVER|98=0|108=30|10=011|8=FIX.4.4|9=69|35=A|34=165|49=CLIENT|52=20250728-09:37:00.436|56=SERVER|98=0|108=30|10=016|8=FIX.4.4|9=69|35=A|34=166|49=CLIENT|52=20250728-09:37:30.431|56=SERVER|98=0|108=30|10=015|8=FIX.4.4|9=69|35=A|34=167|49=CLIENT|52=20250728-09:38:00.423|56=SERVER|98=0|108=30|10=015|